:020000040000FA
:02000000D62BFD
:100714003F340034063400345B3400344F34003446
:10072400663400346D3400347C34003407340034CF
:100734007F3400346F3400348316860183128601BB
:10074400831685010130831285008312A301A4015D
:1007540083122308A00020070C3E840083130008A2
:1007640086000330A2008A30A1005530A000A00BFF
:10077400B92BA10BB92BA20BB92BC02B01308312BF
:10078400A3070318A40A0030A4072408803ACF0062
:1007940080304F02031DD02B0A302302031CD32BBD
:1007A400D42BAA2BA72B00288A238C008B238D0003
:1007B4008C238E008D238F008E2390008F23910035
:1007C4009023920091239300922394009323950005
:1007D40094239600952397009623980097239900D5
:1007E40098239A0099239B009A239C009B239D00A5
:0C07F4009C239E009D239F0083019E2BF0
:02400E00FB3F76
:00000001FF
